{
  "_format": "hh-sol-artifact-1",
  "contractName": "CaseFactory",
  "sourceName": "contracts/CaseFactory.sol",
  "abi": [
    {
      "inputs": [],
      "stateMutability": "nonpayable",
      "type": "constructor"
    },
    {
      "inputs": [
        {
          "internalType": "string",
          "name": "",
          "type": "string"
        }
      ],
      "name": "caseContracts",
      "outputs": [
        {
          "internalType": "address",
          "name": "",
          "type": "address"
        }
      ],
      "stateMutability": "view",
      "type": "function"
    },
    {
      "inputs": [
        {
          "internalType": "string",
          "name": "caseId",
          "type": "string"
        },
        {
          "internalType": "bytes32",
          "name": "lawyer",
          "type": "bytes32"
        },
        {
          "internalType": "bytes32",
          "name": "client",
          "type": "bytes32"
        }
      ],
      "name": "createCase",
      "outputs": [
        {
          "internalType": "address",
          "name": "",
          "type": "address"
        }
      ],
      "stateMutability": "nonpayable",
      "type": "function"
    },
    {
      "inputs": [
        {
          "internalType": "string",
          "name": "caseId",
          "type": "string"
        }
      ],
      "name": "getCaseAddress",
      "outputs": [
        {
          "internalType": "address",
          "name": "",
          "type": "address"
        }
      ],
      "stateMutability": "view",
      "type": "function"
    },
    {
      "inputs": [],
      "name": "owner",
      "outputs": [
        {
          "internalType": "address",
          "name": "",
          "type": "address"
        }
      ],
      "stateMutability": "view",
      "type": "function"
    }
  ],
  "bytecode": "0x6080604052348015600f57600080fd5b50336000806101000a81548173ffffffffffffffffffffffffffffffffffffffff021916908373ffffffffffffffffffffffffffffffffffffffff160217905550611df28061005f6000396000f3fe608060405234801561001057600080fd5b506004361061004c5760003560e01c80634568e826146100515780638da5cb5b14610081578063a13ee72f1461009f578063dee31c9d146100cf575b600080fd5b61006b60048036038101906100669190610426565b6100ff565b60405161007891906104b4565b60405180910390f35b61008961014a565b60405161009691906104b4565b60405180910390f35b6100b960048036038101906100b49190610505565b61016e565b6040516100c691906104b4565b60405180910390f35b6100e960048036038101906100e491906106ba565b610357565b6040516100f691906104b4565b60405180910390f35b600060018383604051610113929190610733565b908152602001604051809103902060009054906101000a900473ffffffffffffffffffffffffffffffffffffffff16905092915050565b60008054906101000a900473ffffffffffffffffffffffffffffffffffffffff1681565b60008060009054906101000a900473ffffffffffffffffffffffffffffffffffffffff1673ffffffffffffffffffffffffffffffffffffffff163373ffffffffffffffffffffffffffffffffffffffff16146101ff576040517f08c379a00000000000000000000000000000000000000000000000000000000081526004016101f6906107a9565b60405180910390fd5b600073ffffffffffffffffffffffffffffffffffffffff1660018686604051610229929190610733565b908152602001604051809103902060009054906101000a900473ffffffffffffffffffffffffffffffffffffffff1673ffffffffffffffffffffffffffffffffffffffff16146102ae576040517f08c379a00000000000000000000000000000000000000000000000000000000081526004016102a590610815565b60405180910390fd5b6000858585856040516102c0906103a0565b6102cd9493929190610871565b604051809103906000f0801580156102e9573d6000803e3d6000fd5b50905080600187876040516102ff929190610733565b908152602001604051809103902060006101000a81548173ffffffffffffffffffffffffffffffffffffffff021916908373ffffffffffffffffffffffffffffffffffffffff16021790555080915050949350505050565b6001818051602081018201805184825260208301602085012081835280955050505050506000915054906101000a900473ffffffffffffffffffffffffffffffffffffffff1681565b61150b806108b283390190565b6000604051905090565b600080fd5b600080fd5b600080fd5b600080fd5b600080fd5b60008083601f8401126103e6576103e56103c1565b5b8235905067ffffffffffffffff811115610403576104026103c6565b5b60208301915083600182028301111561041f5761041e6103cb565b5b9250929050565b6000806020838503121561043d5761043c6103b7565b5b600083013567ffffffffffffffff81111561045b5761045a6103bc565b5b610467858286016103d0565b92509250509250929050565b600073ffffffffffffffffffffffffffffffffffffffff82169050919050565b600061049e82610473565b9050919050565b6104ae81610493565b82525050565b60006020820190506104c960008301846104a5565b92915050565b6000819050919050565b6104e2816104cf565b81146104ed57600080fd5b50565b6000813590506104ff816104d9565b92915050565b6000806000806060858703121561051f5761051e6103b7565b5b600085013567ffffffffffffffff81111561053d5761053c6103bc565b5b610549878288016103d0565b9450945050602061055c878288016104f0565b925050604061056d878288016104f0565b91505092959194509250565b600080fd5b6000601f19601f8301169050919050565b7f4e487b7100000000000000000000000000000000000000000000000000000000600052604160045260246000fd5b6105c78261057e565b810181811067ffffffffffffffff821117156105e6576105e561058f565b5b80604052505050565b60006105f96103ad565b905061060582826105be565b919050565b600067ffffffffffffffff8211156106255761062461058f565b5b61062e8261057e565b9050602081019050919050565b82818337600083830152505050565b600061065d6106588461060a565b6105ef565b90508281526020810184848401111561067957610678610579565b5b61068484828561063b565b509392505050565b600082601f8301126106a1576106a06103c1565b5b81356106b184826020860161064a565b91505092915050565b6000602082840312156106d0576106cf6103b7565b5b600082013567ffffffffffffffff8111156106ee576106ed6103bc565b5b6106fa8482850161068c565b91505092915050565b600081905092915050565b600061071a8385610703565b935061072783858461063b565b82840190509392505050565b600061074082848661070e565b91508190509392505050565b600082825260208201905092915050565b7f4e6f74206f776e65720000000000000000000000000000000000000000000000600082015250565b600061079360098361074c565b915061079e8261075d565b602082019050919050565b600060208201905081810360008301526107c281610786565b9050919050565b7f4361736520616c72656164792065786973747300000000000000000000000000600082015250565b60006107ff60138361074c565b915061080a826107c9565b602082019050919050565b6000602082019050818103600083015261082e816107f2565b9050919050565b6000610841838561074c565b935061084e83858461063b565b6108578361057e565b840190509392505050565b61086b816104cf565b82525050565b6000606082019050818103600083015261088c818688610835565b905061089b6020830185610862565b6108a86040830184610862565b9594505050505056fe608060405234801561001057600080fd5b5060405161150b38038061150b83398181016040528101906100329190610203565b82600090816100419190610493565b508160038190555080600481905550505050610565565b6000604051905090565b600080fd5b600080fd5b600080fd5b600080fd5b6000601f19601f8301169050919050565b7f4e487b7100000000000000000000000000000000000000000000000000000000600052604160045260246000fd5b6100bf82610076565b810181811067ffffffffffffffff821117156100de576100dd610087565b5b80604052505050565b60006100f1610058565b90506100fd82826100b6565b919050565b600067ffffffffffffffff82111561011d5761011c610087565b5b61012682610076565b9050602081019050919050565b60005b83811015610151578082015181840152602081019050610136565b60008484015250505050565b600061017061016b84610102565b6100e7565b90508281526020810184848401111561018c5761018b610071565b5b610197848285610133565b509392505050565b600082601f8301126101b4576101b361006c565b5b81516101c484826020860161015d565b91505092915050565b6000819050919050565b6101e0816101cd565b81146101eb57600080fd5b50565b6000815190506101fd816101d7565b92915050565b60008060006060848603121561021c5761021b610062565b5b600084015167ffffffffffffffff81111561023a57610239610067565b5b6102468682870161019f565b9350506020610257868287016101ee565b9250506040610268868287016101ee565b9150509250925092565b600081519050919050565b7f4e487b7100000000000000000000000000000000000000000000000000000000600052602260045260246000fd5b600060028204905060018216806102c457607f821691505b6020821081036102d7576102d661027d565b5b50919050565b60008190508160005260206000209050919050565b60006020601f8301049050919050565b600082821b905092915050565b60006008830261033f7fffffffffffffffffffffffffffffffffffffffffffffffffffffffffffffffff82610302565b6103498683610302565b95508019841693508086168417925050509392505050565b6000819050919050565b6000819050919050565b600061039061038b61038684610361565b61036b565b610361565b9050919050565b6000819050919050565b6103aa83610375565b6103be6103b682610397565b84845461030f565b825550505050565b600090565b6103d36103c6565b6103de8184846103a1565b505050565b5b81811015610402576103f76000826103cb565b6001810190506103e4565b5050565b601f82111561044757610418816102dd565b610421846102f2565b81016020851015610430578190505b61044461043c856102f2565b8301826103e3565b50505b505050565b600082821c905092915050565b600061046a6000198460080261044c565b1980831691505092915050565b60006104838383610459565b9150826002028217905092915050565b61049c82610272565b67ffffffffffffffff8111156104b5576104b4610087565b5b6104bf82546102ac565b6104ca828285610406565b600060209050601f8311600181146104fd57600084156104eb578287015190505b6104f58582610477565b86555061055d565b601f19841661050b866102dd565b60005b828110156105335784890151825560018201915060208501945060208101905061050e565b86831015610550578489015161054c601f891682610459565b8355505b6001600288020188555050505b505050505050565b610f97806105746000396000f3fe608060405234801561001057600080fd5b50600436106100f55760003560e01c8063690f842911610097578063dccc471811610066578063dccc47181461027b578063e79899bd14610299578063eb3a023c146102cc578063f9094afa146102e8576100f5565b8063690f8429146102075780638a59eb5614610225578063b95fc3e514610241578063c2b6b58c1461025d576100f5565b80633206b2c6116100d35780633206b2c6146101675780633bfb6e311461019a5780635c622a0e146101b8578063618033db146101e9576100f5565b80630347b070146100fa578063109e94cf1461012b5780632d77022b14610149575b600080fd5b610114600480360381019061010f9190610981565b610304565b6040516101229291906109d6565b60405180910390f35b610133610338565b60405161014091906109ff565b60405180910390f35b61015161033e565b60405161015e9190610aaa565b60405180910390f35b610181600480360381019061017c9190610981565b6103cc565b6040516101919493929190610acc565b60405180910390f35b6101a261044f565b6040516101af91906109ff565b60405180910390f35b6101d260048036038101906101cd9190610981565b610455565b6040516101e09291906109d6565b60405180910390f35b6101f16104b1565b6040516101fe9190610b11565b60405180910390f35b61020f6104be565b60405161021c9190610b11565b60405180910390f35b61023f600480360381019061023a9190610b58565b6104cb565b005b61025b60048036038101906102569190610b58565b6105ad565b005b6102656106b7565b6040516102729190610ba0565b60405180910390f35b6102836106ca565b60405161029091906109ff565b60405180910390f35b6102b360048036038101906102ae9190610981565b6106d0565b6040516102c39493929190610acc565b60405180910390f35b6102e660048036038101906102e19190610bbb565b610710565b005b61030260048036038101906102fd9190610b58565b610895565b005b6006818154811061031457600080fd5b90600052602060002090600202016000915090508060000154908060010154905082565b60045481565b6000805461034b90610c2a565b80601f016020809104026020016040519081016040528092919081815260200182805461037790610c2a565b80156103c45780601f10610399576101008083540402835291602001916103c4565b820191906000526020600020905b8154815290600101906020018083116103a757829003601f168201915b505050505081565b6000806000806000600586815481106103e8576103e7610c5b565b5b9060005260206000209060040201604051806080016040529081600082015481526020016001820154815260200160028201548152602001600382015481525050905080600001518160200151826040015183606001519450945094509450509193509193565b60035481565b60008060006006848154811061046e5761046d610c5b565b5b9060005260206000209060020201604051806040016040529081600082015481526020016001820154815250509050806000015181602001519250925050915091565b6000600580549050905090565b6000600680549050905090565b600260009054906101000a900460ff161561051b576040517f08c379a000000000000000000000000000000000000000000000000000000000815260040161051290610cd6565b60405180910390fd5b60066040518060400160405280838152602001428152509080600181540180825580915050600190039060005260206000209060020201600090919091909150600082015181600001556020820151816001015550507f854cfe8da612d45b23b1d2dade7988205e1d60be8d28a9cead33bcbed5f43cd281426040516105a29291906109d6565b60405180910390a150565b600260009054906101000a900460ff16156105fd576040517f08c379a00000000000000000000000000000000000000000000000000000000081526004016105f490610cd6565b60405180910390fd5b6005604051806080016040528083815260200142815260200160018152602001600081525090806001815401808255809150506001900390600052602060002090600402016000909190919091506000820151816000015560208201518160010155604082015181600201556060820151816003015550507fefb2a7b0164dc88e43d1bafaaf1ad35ca9d8b303e7dcdbed59295275cdc025658142600160006040516106ac9493929190610d76565b60405180910390a150565b600260009054906101000a900460ff1681565b60015481565b600581815481106106e057600080fd5b90600052602060002090600402016000915090508060000154908060010154908060020154908060030154905084565b600260009054906101000a900460ff1615610760576040517f08c379a000000000000000000000000000000000000000000000000000000000815260040161075790610cd6565b60405180910390fd5b60058054905082106107a7576040517f08c379a000000000000000000000000000000000000000000000000000000000815260040161079e90610e07565b60405180910390fd5b60006001600584815481106107bf576107be610c5b565b5b9060005260206000209060040201600201546107db9190610e56565b9050600560405180608001604052808481526020014281526020018381526020018581525090806001815401808255809150506001900390600052602060002090600402016000909190919091506000820151816000015560208201518160010155604082015181600201556060820151816003015550507fefb2a7b0164dc88e43d1bafaaf1ad35ca9d8b303e7dcdbed59295275cdc02565824283866040516108889493929190610acc565b60405180910390a1505050565b600260009054906101000a900460ff16156108e5576040517f08c379a00000000000000000000000000000000000000000000000000000000081526004016108dc90610cd6565b60405180910390fd5b806001819055506001600260006101000a81548160ff0219169083151502179055507f7346f479d67730261fd269547a160d5fb4745824acc4d2d515afb3e35e7347e66000824260405161093b93929190610f23565b60405180910390a150565b600080fd5b6000819050919050565b61095e8161094b565b811461096957600080fd5b50565b60008135905061097b81610955565b92915050565b60006020828403121561099757610996610946565b5b60006109a58482850161096c565b91505092915050565b6000819050919050565b6109c1816109ae565b82525050565b6109d08161094b565b82525050565b60006040820190506109eb60008301856109b8565b6109f860208301846109c7565b9392505050565b6000602082019050610a1460008301846109b8565b92915050565b600081519050919050565b600082825260208201905092915050565b60005b83811015610a54578082015181840152602081019050610a39565b60008484015250505050565b6000601f19601f8301169050919050565b6000610a7c82610a1a565b610a868185610a25565b9350610a96818560208601610a36565b610a9f81610a60565b840191505092915050565b60006020820190508181036000830152610ac48184610a71565b905092915050565b6000608082019050610ae160008301876109b8565b610aee60208301866109c7565b610afb60408301856109c7565b610b0860608301846109c7565b95945050505050565b6000602082019050610b2660008301846109c7565b92915050565b610b35816109ae565b8114610b4057600080fd5b50565b600081359050610b5281610b2c565b92915050565b600060208284031215610b6e57610b6d610946565b5b6000610b7c84828501610b43565b91505092915050565b60008115159050919050565b610b9a81610b85565b82525050565b6000602082019050610bb56000830184610b91565b92915050565b60008060408385031215610bd257610bd1610946565b5b6000610be08582860161096c565b9250506020610bf185828601610b43565b9150509250929050565b7f4e487b7100000000000000000000000000000000000000000000000000000000600052602260045260246000fd5b60006002820490506001821680610c4257607f821691505b602082108103610c5557610c54610bfb565b5b50919050565b7f4e487b7100000000000000000000000000000000000000000000000000000000600052603260045260246000fd5b7f4361736520697320636c6f736564000000000000000000000000000000000000600082015250565b6000610cc0600e83610a25565b9150610ccb82610c8a565b602082019050919050565b60006020820190508181036000830152610cef81610cb3565b9050919050565b6000819050919050565b6000819050919050565b6000610d25610d20610d1b84610cf6565b610d00565b61094b565b9050919050565b610d3581610d0a565b82525050565b6000819050919050565b6000610d60610d5b610d5684610d3b565b610d00565b61094b565b9050919050565b610d7081610d45565b82525050565b6000608082019050610d8b60008301876109b8565b610d9860208301866109c7565b610da56040830185610d2c565b610db26060830184610d67565b95945050505050565b7f496e76616c696420706172656e74206c6f6720696e6465780000000000000000600082015250565b6000610df1601883610a25565b9150610dfc82610dbb565b602082019050919050565b60006020820190508181036000830152610e2081610de4565b9050919050565b7f4e487b7100000000000000000000000000000000000000000000000000000000600052601160045260246000fd5b6000610e618261094b565b9150610e6c8361094b565b9250828201905080821115610e8457610e83610e27565b5b92915050565b60008190508160005260206000209050919050565b60008154610eac81610c2a565b610eb68186610a25565b94506001821660008114610ed15760018114610ee757610f1a565b60ff198316865281151560200286019350610f1a565b610ef085610e8a565b60005b83811015610f1257815481890152600182019150602081019050610ef3565b808801955050505b50505092915050565b60006060820190508181036000830152610f3d8186610e9f565b9050610f4c60208301856109b8565b610f5960408301846109c7565b94935050505056fea264697066735822122097d0c395217ba80f8697f68a9ac7ebcf96f8df6f81b079d84417b44352d55f8a64736f6c634300081c0033a2646970667358221220fb49cb57603af2de5bc7e2ea23c9d9d86c15c6785a9573c89d5e35dc91deda4264736f6c634300081c0033",
  "linkReferences": {},
  "deployedLinkReferences": {}
}